:020000040800F2
:1000000070080020F9010008590200085902000890
:1000100059020008590200085902000800000000B7
:10002000000000000000000000000000590200086D
:100030005902000800000000590200089904000855
:100040005902000859020008590200085902000824
:100050005902000859020008590200085902000814
:100060005902000859020008590200085902000804
:1000700059020008590200085902000859020008F4
:1000800059020008590200085902000859020008E4
:1000900059020008590200085902000859020008D4
:1000A00059020008590200085902000859020008C4
:1000B00059020008590200085902000859020008B4
:1000C00059020008590200085902000859020008A4
:1000D0005902000859020008590200085902000894
:1000E00059020008590200085902000800000000E7
:1000F0000000000000000000000000000000000000
:1001000000000000000000005FF808F180B500AFBB
:10011000154B154A126842F001021A60124A124B3E
:100120005968124B0B4053600F4A0F4B1B6823F06A
:10013000847323F4803313600B4B0B4A126822F450
:1001400080221A60084B084A526822F4FE025A6064
:10015000054B4FF41F029A6000F00CF8044B4FF06F
:1001600000629A6080BD00BF001002400000FFF8EE
:1001700000ED00E080B500AF00F002F880BD00BFE8
:1001800080B500AF012000F0AFFD00BF212000F0DE
:1001900039FF0346002BF9D0022001F085F800203A
:1001A00000F0E0FD002000F0F9FD002000F012FE5C
:1001B000002000F02BFE002000F0C4FD00204FF4D2
:1001C000601100F0A1FD012000F0BCFD00BF39204E
:1001D00000F018FF0346002BF9D0022000F0C2FD0A
:1001E000002000F0DBFD002000F010FE4FF48060E6
:1001F00000F0F0FD80BD00BF80B582B000AF114BB4
:100200007B60114B3B6007E03B681A1D3A607A68DF
:10021000111D796012681A603A680C4B9A42F3D348
:100220000B480C494FF000028842B8BF40F8042B3D
:10023000FFF6FAAFFFF76AFF00F03CF90837BD465A
:1002400080BD00BF0C130008000000205C040020EB
:100250005C0400207004002080B400AFFEE700BF03
:1002600080B489B000AF786039600023FB6100235F
:100270003B610023BB610023FB6000237B61002303
:10028000BB603B68DB7803F00F03FB613B68DB7806
:1002900003F01003002B04D03B689B78FA691343EA
:1002A000FB613B681B88DBB2002B44D07B681B687A
:1002B0007B610023BB6138E0BB69012202FA03F3D2
:1002C000FB603B681B881A46FB6813403B613A6938
:1002D000FB689A4226D1BB699B00FB60FB680F223A
:1002E00002FA03F3BB60BB68DB437A6913407B61AE
:1002F000FB68FA6902FA03F37A6913437B613B688E
:10030000DB78282B05D1BB6901229A407B685A61B2
:1003100008E03B68DB78482B04D1BB6901229A4096
:100320007B681A61BB690133BB61BB69072BC3D909
:100330007B687A691A603B681B88FF2B46D97B680B
:100340005B687B610023BB613AE0BB690833012233
:1003500002FA03F3FB603B681B881A46FB681340F4
:100360003B613A69FB689A4227D1BB699B00FB60FD
:10037000FB680F2202FA03F3BB60BB68DB437A69B8
:1003800013407B61FB68FA6902FA03F37A6913434D
:100390007B613B68DB78282B05D1BB6908330122E0
:1003A0009A407B685A613B68DB78482B05D1BB6972
:1003B000083301229A407B681A61BB690133BB6133
:1003C000BB69072BC1D97B687A695A602437BD465F
:1003D0005DF8047B704700BF80B483B000AF7860E5
:1003E0000B467B80054B054AD26882F40052DA60E6
:1003F0000C37BD465DF8047B704700BF001001401C
:1004000080B483B000AF03463960FB7197F90730C1
:10041000002B0BDA0D49FB7903F00F03043B3A681C
:10042000D2B21201D2B20B441A7609E0084997F908
:1004300007303A68D2B21201D2B20B4483F80023DB
:100440000C37BD465DF8047B704700BF00ED00E04F
:1004500000E100E080B582B000AF78607B68B3F166
:10046000807F01D3012311E00A4B7A6822F07F429A
:10047000013A5A604FF0FF300F21FFF7C1FF054BE3
:1004800000229A60034B07221A600023184608379F
:10049000BD4680BD10E000E080B400AF044B1B6897
:1004A0005A1C034B1A60BD465DF8047B704700BFC1
:1004B0006C04002080B500AF204B1A68204BA3FBD2
:1004C00002139B091846FFF7C5FF00F049F81D4BC2
:1004D0001A681D4B1A601C4B1A681C4B1B68D31AF8
:1004E000B3F5FA7F18D9184B1A68184B1A601848D8
:1004F0004FF40051FFF770FF164B1B781648194652
:1005000000F09AFB0A2000F095F8124B1B7801339B
:10051000DAB2104B1A7008E007E0104800F098FEBD
:100520000346DBB2184600F085F80C48202100F0A5
:100530009FFE0346012BF0D0C9E700BF000000205A
:10054000D34D62106C040020640400205C04002081
:100550000010014060040020E01200080038014053
:1005600080B584B000AF1020012100F01DFD2D4B9F
:100570004FF400521A802B4B1022DA70294B0322C1
:100580009A7029482749FFF76BFE44F204000121C5
:1005900000F00AFD234B4FF400721A80214B182201
:1005A000DA70204B03229A7020481E49FFF758FE4C
:1005B0001C4B4FF480621A801A4B0422DA701B48DD
:1005C0001849FFF74DFE0420012100F0EDFC154B0A
:1005D0004FF480721A80134B1822DA70114B0322E9
:1005E0009A7012480F49FFF73BFE042000F0FAFC16
:1005F0004FF4E1333B600023BB800023FB800023EA
:100600003B810023BB810C237B813B460848194674
:1006100000F032FD0648012100F0E8FD1037BD462C
:1006200080BD00BF680400200010014000080140A8
:100630000038014080B582B000AF0346FB7100BFB7
:100640000748402100F014FE0346002BF8D0FB7948
:100650009BB20348194600F0E9FD0837BD4680BD4E
:100660000038014080B483B000AF78600B46FB7067
:100670007B68FA781A70012318460C37BD465DF87E
:10068000047B704780B485B000AF78603960002388
:10069000FB600AE07B685A1C7A603A68511C39603A
:1006A00012781A70FB680133FB603B681B78002BE3
:1006B000F0D1FB6818461437BD465DF8047B7047DF
:1006C00080B586B000AFF8607A603B600B46FB7285
:1006D00000237B617B68013B7B603B68092B10D961
:1006E0003A681E4BA3FB0213DB08FA7AF86811463E
:1006F0007A68FFF7E5FF78617B69FA681344FB606D
:1007000011E00DE0FB7AF8681946FFF7ABFFFB68D4
:100710000133FB607B6901337B617B68013B7B605C
:100720007B68002BEEDC39680C4BA3FB0123DA0855
:1007300013469B0013445B00CA1AD3B23033DBB2BA
:10074000F8681946FFF78EFF03467A6913447B6108
:100750007B6918461837BD4680BD00BFCDCCCCCCD8
:1007600080B586B000AFF8607A603B600B46FB72E4
:1007700000237B613B68002B03DA3B685B423B61F3
:1007800001E03B683B617B68013B7B603B69092B77
:1007900021D93B68002B0DDA3A692F4BA3FB0213DA
:1007A000DB085B42FA7AF86811467A68FFF7D8FFEF
:1007B00078610BE03A69284BA3FB0213DB08FA7A55
:1007C000F86811467A68FFF7CBFF78617B69FA68B1
:1007D0001344FB6026E03B68002B03DA7B68013B97
:1007E0007B600EE00DE0FB7AF8681946FFF73AFFF0
:1007F000FB680133FB607B6901337B617B68013BF4
:100800007B607B68002BEEDC3B68002B0ADAF86823
:100810002D21FFF727FF03467A6913447B61FB68AC
:100820000133FB6039690C4BA3FB0123DA08134643
:100830009B0013445B00CA1AD3B23033DBB2F868B2
:100840001946FFF70FFF03467A6913447B617B6902
:1008500018461837BD4680BDCDCCCCCC80B588B00D
:1008600002AFF8607A600A46FA72BB7200237B61BD
:100870007B68013B7B603B6A1B09002B12D03B6A03
:100880001909FA7ABB7A0091F86811467A68FFF77D
:10089000E5FF03467A6913447B617B69FA68134478
:1008A000FB6011E00DE0FB7AF8681946FFF7DAFE0D
:1008B000FB680133FB607B6901337B617B68013B33
:1008C0007B607B68002BEEDC3B6A03F00F03092B97
:1008D0000BD83B6ADBB203F00F03DBB23033DBB281
:1008E000F8681946FFF7BEFE19E0BB7A002B0BD063
:1008F0003B6ADBB203F00F03DBB23733DBB2F868DD
:100900001946FFF7AFFE0AE03B6ADBB203F00F03C4
:10091000DBB25733DBB2F8681946FFF7A3FE7B69F9
:1009200001337B617B6918461837BD4680BD00BF27
:1009300080B58AB002AFF860B9607A603B6000238E
:10094000BB6100237B61FB68002B03D0FB680022A6
:100950001A70F8E0F7E07B681B78252B0BD0FB685A
:100960005A1CFA607A68511C796012781A707B6997
:1009700001337B61E7E07B6801331B78252B0BD1CA
:10098000FB685A1CFA6025221A707B6802337B6070
:100990007B6901337B61D6E02023FB770023BB77A3
:1009A0007B6801337B607B681B78302B05D130235B
:1009B000FB777B6801337B600FE00EE0BB7F1A465C
:1009C000920013445B00DAB27B681B781344DBB2FD
:1009D000303BBB777B6801337B607B681B782F2BB8
:1009E00003D97B681B78392BE8D9BA7F7B6913441C
:1009F0001A46BB689A4205D9BB68DAB27B69DBB29A
:100A0000D31ABB777B681B78583B202B00F28D8074
:100A100001A252F823F000BFE50A00082B0B0008E2
:100A20002B0B00082B0B00082B0B00082B0B0008CE
:100A30002B0B00082B0B00082B0B00082B0B0008BE
:100A40002B0B0008150B00089D0A00082B0B000853
:100A50002B0B00082B0B00082B0B00089D0A00082D
:100A60002B0B00082B0B00082B0B00082B0B00088E
:100A70002B0B00082B0B00082B0B00082B0B00087E
:100A80002B0B0008010B00082B0B0008B30A000811
:100A90002B0B00082B0B0008C90A0008BA7F3B6823
:100AA000191D39601B68F97FF868FFF759FEB861B6
:100AB0003EE0BA7F3B68191D39601B68F97FF86812
:100AC000FFF7FEFDB86133E0BA7F3B68191D39605E
:100AD0001968FB7F0091F86819460023FFF7BEFEF6
:100AE000B86125E0BA7F3B68191D39601968FB7F42
:100AF0000091F86819460123FFF7B0FEB86117E0CE
:100B00003B681A1D3A601B68F8681946FFF7BAFD82
:100B1000B8610DE03B681A1D3A601B68DBB2F868EB
:100B20001946FFF79FFDB86102E04FF0FF3325E063
:100B30007B6801337B60BB69FA681344FB607A69A8
:100B4000BB6913447B617B681B78002B04D07A69F6
:100B5000BB689A42FFF4FFAE7A69BB689A4203D23F
:100B6000FB6800221A7008E0FB68013BFB60FB6831
:100B700000221A707B69013B7B617B691846203734
:100B8000BD4680BD80B584B000AFF860B9607A60C2
:100B9000F8686421BA687B68FFF7CAFE0346184606
:100BA0001037BD4680BD00BFB0B5A6B000AFF8603D
:100BB000B9607A60144B07F110041D460FCD0FC4C5
:100BC0000FCD0FC42B68236007F134031846B968B2
:100BD0007A68FFF7D7FF0346632B09DD0B4B1B68D1
:100BE000DB6807F110021046194600F059F8FEE7DD
:100BF00007F134031846F96800F052F80346184626
:100C00009837BD46B0BD00BFE81200084004002080
:100C100080B582B000AF78603960064B1B689B6876
:100C2000184679683A68FFF7BFFF03461846083749
:100C3000BD4680BD400400200FB480B582B000AF37
:100C400007F114033B6038693968FFF7E1FF78600A
:100C50007B6818460837BD46BDE8804004B0704741
:100C600080B582B000AF786039600C4B1B689A6821
:100C70003B689A4205D0094B1B68DA683B689A4288
:100C800006D17B68DBB21846FFF7D4FC7B6801E035
:100C90004FF0FF3318460837BD4680BD40040020A2
:100CA00080B584B000AF786039600023FB6012E04B
:100CB0007B681B7818463968FFF7D2FF0346B3F10B
:100CC000FF3F02D14FF0FF330AE0FB680133FB60C6
:100CD0007B6801337B607B681B78002BE8D1FB6865
:100CE00018461037BD4680BD80B483B000AF0346C0
:100CF000FB71044BFA791A600C37BD465DF8047B32
:100D0000704700BF0000424280B485B000AF7860F9
:100D100039600023FB600A4B5B68FB60FB6823F4CF
:100D20007C13FB607A683B681343FA681343FB60EB
:100D3000034BFA685A601437BD465DF8047B704770
:100D40000010024080B483B000AF0346FB71044B37
:100D5000FA791A600C37BD465DF8047B704700BF16
:100D60006000424280B485B000AF78600023FB6031
:100D7000094B5B68FB60FB6823F00303FB60FA68C8
:100D80007B681343FB60044BFA685A601437BD4616
:100D90005DF8047B704700BF0010024080B485B04E
:100DA00000AF78600023FB60094B5B68FB60FB6869
:100DB00023F0F003FB60FA687B681343FB60044B8D
:100DC000FA685A601437BD465DF8047B704700BF6F
:100DD0000010024080B485B000AF78600023FB6053
:100DE000094B5B68FB60FB6823F4E063FB60FA6817
:100DF0007B681343FB60044BFA685A601437BD46A6
:100E00005DF8047B704700BF0010024080B485B0DD
:100E100000AF78600023FB60094B5B68FB60FB68F8
:100E200023F46053FB607B68DB00FA681343FB60CC
:100E3000034BFA685A601437BD465DF8047B70476F
:100E40000010024080B487B000AF786000237B615F
:100E500000233B610023FB600023BB604D4B5B68BC
:100E600003F00C037B617B69042B07D0082B09D0AE
:100E7000002B34D17B68484A1A6034E07B68464ACC
:100E80001A6030E0434B5B6803F470133B61414BE5
:100E90005B6803F48033FB603B699B0C02333B616E
:100EA000FB68002B06D13B693C4A02FB03F27B68DE
:100EB0001A6013E0374B5B6803F40033002B06D055
:100EC0003B69364A02FB03F27B681A6006E03B6925
:100ED000314A02FB03F27B681A6004E003E07B689E
:100EE0002D4A1A6000BF2B4B5B6803F0F0037B6157
:100EF0007B691B097B612A4A7B6913441B78DBB23F
:100F0000BB607B681A68BB68DA407B685A60214B1B
:100F10005B6803F4E0637B617B691B0A7B61204AA9
:100F20007B6913441B78DBB2BB607B685A68BB6883
:100F3000DA407B689A60174B5B6803F460537B610F
:100F40007B69DB0A7B61164A7B6913441B78DBB241
:100F5000BB607B685A68BB68DA407B68DA600D4B1F
:100F60005B6803F440437B617B699B0B7B610D4AAB
:100F70007B6913441B78DBB2BB607B68DA68BB68B3
:100F8000B2FBF3F27B681A611C37BD465DF8047B47
:100F9000704700BF0010024000127A0000093D00B7
:100FA000480400205804002080B483B000AF78606B
:100FB0000B46FB70FB78002B06D0094B084A916961
:100FC0007A680A439A6106E0054B054A91697A6896
:100FD000D2430A409A610C37BD465DF8047B7047E6
:100FE0000010024080B483B000AF0346FB71044B95
:100FF000FA791A700C37BD465DF8047B704700BF64
:101000000710024080B487B000AF0346FB71002395
:10101000FB6000237B610023FB74FB795B09DBB27F
:10102000FB60FB68012B03D1124B1B687B6109E05D
:10103000FB68022B03D10F4B1B6A7B6102E00D4B57
:101040005B6A7B61FB7903F01F03FB60FB687A69D5
:1010500022FA03F303F00103002B02D00123FB74F7
:1010600001E00023FB74FB7C18461C37BD465DF88D
:10107000047B70470010024080B58CB000AF7860F0
:1010800039600023FB620023BB6200237B620023E4
:101090003B620023FB617B68FB617B681B8A9BB220
:1010A000FB62FA6A4CF6FF731340FB623B68DB8815
:1010B000FA6A1343FB62FB6A9AB27B681A827B6806
:1010C0009B899BB2FB62FA6A4EF6F3131340FB62F4
:1010D0003B689A883B681B8913439AB23B685B89DB
:1010E00013439BB2FA6A1343FB62FB6A9AB27B68B2
:1010F0009A817B689B8A9BB2FB62FA6A4FF6FF4338
:101100001340FB623B689B89FA6A1343FB62FB6AEC
:101110009AB27B689A8207F108031846FFF792FE9D
:10112000FA69304B9A4202D17B69BB6201E03B69AC
:10113000BB627B689B899BB29BB21BB2002B0CDA13
:10114000BA6A13469B0013449A001A443B681B6812
:101150005B00B2FBF3F37B620BE0BA6A13469B00C1
:1011600013449A001A443B681B689B00B2FBF3F3DC
:101170007B627A6A1C4BA3FB02135B091B01FB62B7
:10118000FB6A1B09642202FB03F37A6AD31A3B62EF
:101190007B689B899BB29BB21BB2002B0DDA3B6A2A
:1011A000DB0003F13202104BA3FB02135B0903F0D7
:1011B0000703FA6A1343FB620CE03B6A1B0103F16D
:1011C0003202094BA3FB02135B0903F00F03FA6A17
:1011D0001343FB62FB6A9AB27B681A813037BD46C3
:1011E00080BD00BF003801401F85EB5180B483B043
:1011F00000AF78600B46FB70FB78002B08D07B6853
:101200009B899BB243F400539AB27B689A8107E0B2
:101210007B689B899BB223F400539AB27B689A81C6
:101220000C37BD465DF8047B704700BF80B483B0C7
:1012300000AF78600B467B807B88C3F308039AB2CB
:101240007B689A800C37BD465DF8047B704700BF11
:1012500080B483B000AF78607B689B889BB2C3F397
:1012600008039BB218460C37BD465DF8047B7047F7
:1012700080B485B000AF78600B467B800023FB73A1
:101280007B681B889AB27B8813409BB2002B02D0EC
:101290000123FB7301E00023FB73FB7B184614372B
:1012A000BD465DF8047B704780B485B000AF7860C0
:1012B0000023FB60094B1B68FB60FB6803F03803ED
:1012C000FB60FA687B681343FB60044BFA681A60A2
:1012D0001437BD465DF8047B704700BF0020024014
:1012E000783D25640D000000737464696F2E633AC5
:1012F00020696E637265617365204D41585F535478
:0C13000052494E475F53495A450A0D0000
:10130C000090D00300000000000000000102030464
:10131C0006070809000000000000000000000000A3
:10132C0001000000000000000000000000000000B0
:10133C0000000000000000000000000000000000A1
:10134C000000000000000000000000000000000091
:10135C000000000000000000000000000000000081
:10136C000000000000000000000000000000000071
:10174C00180000200000000000000000010203044B
:0C175C0001020304060708090204060845
:0400000508000000EF
:00000001FF
