:020000040800F2
:10000000B840002081020008E1020008E102000877
:10001000E1020008E1020008E1020008000000001F
:10002000000000000000000000000000E1020008E5
:10003000E102000800000000E102000821050008BC
:10004000E1020008E1020008E1020008E102000804
:10005000E1020008E1020008E1020008E1020008F4
:10006000E1020008E1020008E1020008E1020008E4
:10007000E1020008E1020008E1020008E1020008D4
:10008000E1020008E1020008E1020008E1020008C4
:10009000E1020008E1020008E1020008E1020008B4
:1000A000E1020008E1020008E1020008E1020008A4
:1000B000E1020008E1020008E1020008E102000894
:1000C000E1020008E1020008E1020008E102000884
:1000D000E1020008E1020008E1020008E102000874
:1000E000E1020008E1020008E1020008000000004F
:1000F0000000000000000000000000000000000000
:1001000000000000000000005FF808F180B500AFBB
:10011000154B154A126842F001021A60124A124B3E
:100120005968124B0B4053600F4A0F4B1B6823F06A
:10013000847323F4803313600B4B0B4A126822F450
:1001400080221A60084B084A526822F4FE025A6064
:10015000054B4FF41F029A6000F00CF8044B4FF06F
:1001600000629A6080BD00BF001002400000FFF8EE
:1001700000ED00E080B500AF00F002F880BD00BFE8
:1001800080B483B000AF00237B6000233B603A4B18
:10019000394A126842F480321A60374B1B6803F404
:1001A00000333B607B6801337B603B68002B03D1ED
:1001B0007B68B3F5A06FF0D12F4B1B6803F40033BD
:1001C000002B02D001233B6001E000233B603B6831
:1001D000012B4BD1294B294A126842F010021A60B8
:1001E000264B264A126822F003021A60234B234A48
:1001F000126842F002021A601F4B1F4A52685A608E
:100200001D4B1D4A52685A601B4B1B4A526842F4F0
:1002100080625A60184B184A526822F47C125A6065
:10022000154B154A526842F4E8125A60124B124AB2
:10023000126842F080721A6000BF0F4B1B6803F017
:100240000073002BF9D00C4B0B4A526822F00302CA
:100250005A60094B084A526842F002025A6000BFD5
:10026000054B5B6803F00C03082BF9D10C37BD4636
:100270005DF8047B704700BF001002400020024080
:1002800080B582B000AF114B7B60114B3B6007E043
:100290003B681A1D3A607A68111D796012681A600D
:1002A0003A680C4B9A42F3D30B480C494FF00002CA
:1002B0008842B8BF40F8042BFFF6FAAFFFF726FFDD
:1002C00000F03CF90837BD4680BD00BFB01F0008F4
:1002D000000000208C0000208C000020B8000020CE
:1002E00080B400AFFEE700BF80B489B000AF786093
:1002F00039600023FB6100233B610023BB610023C5
:10030000FB6000237B610023BB603B68DB7803F06C
:100310000F03FB613B68DB7803F01003002B04D074
:100320003B689B78FA691343FB613B681B88DBB22F
:10033000002B44D07B681B687B610023BB6138E0E5
:10034000BB69012202FA03F3FB603B681B881A4673
:10035000FB6813403B613A69FB689A4226D1BB694E
:100360009B00FB60FB680F2202FA03F3BB60BB68D3
:10037000DB437A6913407B61FB68FA6902FA03F395
:100380007A6913437B613B68DB78282B05D1BB6915
:1003900001229A407B685A6108E03B68DB78482B71
:1003A00004D1BB6901229A407B681A61BB690133A1
:1003B000BB61BB69072BC3D97B687A691A603B684C
:1003C0001B88FF2B46D97B685B687B610023BB6180
:1003D0003AE0BB690833012202FA03F3FB603B6891
:1003E0001B881A46FB6813403B613A69FB689A42D6
:1003F00027D1BB699B00FB60FB680F2202FA03F365
:10040000BB60BB68DB437A6913407B61FB68FA69B8
:1004100002FA03F37A6913437B613B68DB78282B8C
:1004200005D1BB69083301229A407B685A613B6859
:10043000DB78482B05D1BB69083301229A407B68E1
:100440001A61BB690133BB61BB69072BC1D97B68EA
:100450007A695A602437BD465DF8047B704700BF57
:1004600080B483B000AF78600B467B80054B054AB3
:10047000D26882F40052DA600C37BD465DF8047B26
:10048000704700BF0010014080B483B000AF034646
:100490003960FB7197F90730002B0BDA0D49FB79B6
:1004A00003F00F03043B3A68D2B21201D2B20B44FC
:1004B0001A7609E0084997F907303A68D2B2120172
:1004C000D2B20B4483F800230C37BD465DF8047BA1
:1004D000704700BF00ED00E000E100E080B582B0B1
:1004E00000AF78607B68B3F1807F01D3012311E016
:1004F0000A4B7A6822F07F42013A5A604FF0FF308F
:100500000F21FFF7C1FF054B00229A60034B072222
:100510001A60002318460837BD4680BD10E000E091
:1005200080B400AF044B1B685A1C034B1A60BD46D5
:100530005DF8047B704700BFAC00002080B500AFC1
:10054000864B1A68864BA3FB02139B091846FFF7DC
:10055000C5FF00F01BF9834B1B685B681846002140
:100560000222002300F0C4FC7E4B1B689B681846E7
:1005700000210222002300F0BBFC7A4B1B68DB68E1
:10058000184600210222002300F0B2FC764800F059
:100590007BFC764B1A68764B1A60754B1A68754B64
:1005A0001B68D31AB3F5FA7F61D9714B1A68714B86
:1005B0001A6071484FF40051FFF752FF6F486121F4
:1005C00000F012FB674B1B689B689A68013A9A60BF
:1005D0009B68002B33DA634B1B689B689A68614BFE
:1005E0001B689B689B699A421EDB5E4B1B689B687D
:1005F0001B6862221A705B4B1B689B681B681B7828
:100600000A2B06D0574B1B689B681A6801321A6088
:1006100021E0544B1A68534B1B689B6810460A2113
:100620001A4600F09FFF16E04E4B1A684D4B1B68B0
:100630009B68104662211A4600F094FF0BE0494B7C
:100640001B689B681B6862221A70464B1B689B687C
:100650001A6801321A604A4B1B784A48194600F062
:100660009BFB474B1B780133DAB2454B1A703D4B6D
:100670001B685B685A68013A5A605B68002B0BDAAA
:10068000384B1A68374B1B685B681046194600F0F8
:1006900003FC0346DBB207E0324B1B685A68136861
:1006A000591C11601B78DBB2374A1370364B1B782C
:1006B0005BB2B3F1FF3F50D02A4B1B689B689A682E
:1006C000013A9A609B68002B38DA264B1B689B68BE
:1006D0009A68244B1B689B689B699A4220DB214BDC
:1006E0001B689B681B68284A1278D2B21A701D4B8F
:1006F0001B689B681B681B780A2B06D0194B1B686C
:100700009B681A6801321A6027E0164B1A68154B6D
:100710001B689B6810460A211A4600F023FF1CE064
:10072000104B1968184B1B785AB20E4B1B689B680C
:10073000084611461A4600F015FF2AE7094B1B68C8
:100740009B681B68104A1278D2B21A70054B1B685E
:100750009B681A6801321A601BE71AE70000002044
:10076000D34D621088000020041F0008AC00002058
:10077000A00000208C000020001001400038014043
:10078000900000200C1F0008A400002080B584B059
:1007900000AF1020012100F02FF9224B4FF400523E
:1007A0001A80204B1022DA701E4B03229A701E48CA
:1007B0001C49FFF799FD44F20400012100F01CF9E7
:1007C000184B4FF400721A80164B1822DA70154B32
:1007D00003229A7015481349FFF786FD114B4FF419
:1007E00080621A800F4B0422DA7010480D49FFF71F
:1007F0007BFD4FF4E1333B600023BB800023FB8093
:1008000000233B810023BB810C237B813B460848AE
:10081000194600F00FF90648012100F0C5F910371C
:10082000BD4680BDA8000020001001400008014026
:100830000038014080B582B000AF786000BF094841
:10084000402100F0F3F90346002BF8D07B68DBB2BF
:100850000448194600F0C8F97B6818460837BD46B9
:1008600080BD00BF0038014080B582B000AF786025
:1008700000BF0748202100F0D9F90346002BF8D02B
:10088000034800F0C3F9034618460837BD4680BD4B
:100890000038014080B487B000AF786000237B61EE
:1008A00000233B610023FB600023BB604D4B5B6872
:1008B00003F00C037B617B69042B07D0082B09D064
:1008C000002B34D17B68484A1A6034E07B68464A82
:1008D0001A6030E0434B5B6803F470133B61414B9B
:1008E0005B6803F48033FB603B699B0C02333B6124
:1008F000FB68002B06D13B693C4A02FB03F27B6894
:100900001A6013E0374B5B6803F40033002B06D00A
:100910003B69364A02FB03F27B681A6006E03B69DA
:10092000314A02FB03F27B681A6004E003E07B6853
:100930002D4A1A6000BF2B4B5B6803F0F0037B610C
:100940007B691B097B612A4A7B6913441B78DBB2F4
:10095000BB607B681A68BB68DA407B685A60214BD1
:100960005B6803F4E0637B617B691B0A7B61204A5F
:100970007B6913441B78DBB2BB607B685A68BB6839
:10098000DA407B689A60174B5B6803F460537B61C5
:100990007B69DB0A7B61164A7B6913441B78DBB2F7
:1009A000BB607B685A68BB68DA407B68DA600D4BD5
:1009B0005B6803F440437B617B699B0B7B610D4A61
:1009C0007B6913441B78DBB2BB607B68DA68BB6869
:1009D000B2FBF3F27B681A611C37BD465DF8047BFD
:1009E000704700BF0010024000127A0000093D006D
:1009F000140000202400002080B483B000AF786091
:100A00000B46FB70FB78002B06D0094B084A916916
:100A10007A680A439A6106E0054B054A91697A684B
:100A2000D2430A409A610C37BD465DF8047B70479B
:100A30000010024080B58CB000AF786039600023B0
:100A4000FB620023BB6200237B6200233B62002326
:100A5000FB617B68FB617B681B8A9BB2FB62FA6A65
:100A60004CF6FF731340FB623B68DB88FA6A134362
:100A7000FB62FB6A9AB27B681A827B689B899BB295
:100A8000FB62FA6A4EF6F3131340FB623B689A88E6
:100A90003B681B8913439AB23B685B8913439BB243
:100AA000FA6A1343FB62FB6A9AB27B689A817B689D
:100AB0009B8A9BB2FB62FA6A4FF6FF431340FB62CC
:100AC0003B689B89FA6A1343FB62FB6A9AB27B68B4
:100AD0009A8207F108031846FFF7DCFEFA69304BEB
:100AE0009A4202D17B69BB6201E03B69BB627B68D1
:100AF0009B899BB29BB21BB2002B0CDABA6A1346DD
:100B00009B0013449A001A443B681B685B00B2FBCD
:100B1000F3F37B620BE0BA6A13469B0013449A001E
:100B20001A443B681B689B00B2FBF3F37B627A6A52
:100B30001C4BA3FB02135B091B01FB62FB6A1B0935
:100B4000642202FB03F37A6AD31A3B627B689B89B7
:100B50009BB29BB21BB2002B0DDA3B6ADB0003F1A8
:100B60003202104BA3FB02135B0903F00703FA6A7E
:100B70001343FB620CE03B6A1B0103F13202094B99
:100B8000A3FB02135B0903F00F03FA6A1343FB6232
:100B9000FB6A9AB27B681A813037BD4680BD00BFC0
:100BA000003801401F85EB5180B483B000AF7860FE
:100BB0000B46FB70FB78002B08D07B689B899BB2AF
:100BC00043F400539AB27B689A8107E07B689B8963
:100BD0009BB223F400539AB27B689A810C37BD46CE
:100BE0005DF8047B704700BF80B483B000AF7860CD
:100BF0000B467B807B88C3F308039AB27B689A809C
:100C00000C37BD465DF8047B704700BF80B483B0ED
:100C100000AF78607B689B889BB2C3F308039BB2EC
:100C200018460C37BD465DF8047B704780B485B02C
:100C300000AF78600B467B800023FB737B681B88CA
:100C40009AB27B8813409BB2002B02D00123FB7326
:100C500001E00023FB73FB7B18461437BD465DF8AB
:100C6000047B704780B485B000AF78600B4B1B6885
:100C7000002B02D1094B0A4A1A60084B1B68FB6023
:100C8000064B1A687B681A44044B1A60FB681846C6
:100C90001437BD465DF8047B704700BF9400002008
:100CA000B800002080B483B000AF78604FF0FF330D
:100CB00018460C37BD465DF8047B704780B483B09E
:100CC00000AF786039603B684FF400525A600023EF
:100CD00018460C37BD465DF8047B704780B483B07E
:100CE00000AF7860012318460C37BD465DF8047BE1
:100CF000704700BF80B485B000AFF860B9607A601B
:100D0000002318461437BD465DF8047B704700BFCA
:100D100090B587B000AFF860B9607A6000237B615E
:100D20000AE0BC68631CBB60FFF79EFD0346DBB2B4
:100D300023707B6901337B6108482021FFF776FF30
:100D40000346012BEDD07B69002B02D14FF0FF331E
:100D50007B617B6918461C37BD4690BD0038014059
:100D600080B586B000AFF860B9607A6000237B611F
:100D700009E0BB685A1CBA601B781846FFF75AFD99
:100D80007B6901337B617A697B689A42F1DB7B681E
:100D900018461837BD4680BD0FB40A4B13B51C6802
:100DA00024B1A36913B9204600F0B2FD05AB20467B
:100DB000A168049A019300F04BF902B0BDE810401D
:100DC00004B070478800002070B50E46054618B183
:100DD00083690BB900F09CFDAC68A389190701D5A4
:100DE000236983B92846214600F010FC58B14FF022
:100DF000FF3070BD002B0EDB236816F8012C1A7033
:100E0000236801332360A36816F8012B013BA3601C
:100E1000002AEFD117E0A269934209DB236816F894
:100E2000012C1A70236819780A29EAD1284602E0B1
:100E300016F8011C2846224600F094FBB0F1FF3260
:100E400050425041D2E7002B16DAA269934208DBE8
:100E500023680A221A7023681978914210D1284613
:100E600001E028460A21224600F07CFBB0F1FF3366
:100E70005842584130B1BAE723680A221A702368F1
:100E8000013323600A2070BD024B01461868FFF74A
:100E90009BBF00BF8800002038B50C46054618B13E
:100EA00083690BB900F034FD0E4B9C4201D16C6894
:100EB00008E00D4B9C4201D1AC6803E00B4B9C4217
:100EC00008BFEC682846214600F0D2FE38B96368B6
:100ED000013B636023685A1C2260187838BD4FF0CC
:100EE000FF3038BD501F0008701F0008901F000819
:100EF0002DE9F0411E463D4B04461D680F469046C5
:100F000025B1AB6913B9284600F002FD384B9C426D
:100F100001D16C6808E0374B9C4201D1AC6803E01A
:100F2000354B9C4208BFEC68B8F1020F59D8002E2F
:100F300057DB2846214600F05BFC00236360A36179
:100F4000A3891B0603D52846216900F0EFFDA3897C
:100F5000B8F1020F23F08303A38112D037BB002E18
:100F600008BF4FF48066304600F0C2FD0746C8B99E
:100F70004FF4806000F0BCFD074688B94FF0FF30A9
:100F800000E00020A38943F00203A3810023A360B3
:100F900004F147032360236101236361BDE8F0810D
:100FA0004FF48066A38943F08003A381B8F1010F59
:100FB00005D1A38943F00103A3817342A3610F4BC1
:100FC000AB62A389276003F0080080B227616661E5
:100FD00048B113F0030F18BF0026A6600020BDE83B
:100FE000F0814FF0FF30BDE8F08100BF88000020A5
:100FF000501F0008701F0008901F000869180008A3
:10100000936810B5013B002B936005DA9469A34205
:1010100008DBCBB20A2B05D01368581C106019707E
:10102000C8B210BDBDE8104000F09CBAF8B5054646
:101030000E461446D718BC4208D0284614F8011BA7
:101040003246FFF7DDFF431CF5D100E00020F8BD7C
:101050002DE9F0439DB00D4617460393064618B19F
:1010600083690BB900F054FC734B9D4201D1756844
:1010700008E0724B9D4201D1B56803E0704B9D4280
:1010800008BFF568AB8918070AD52B6943B100235F
:10109000099320238DF8293030238DF82A3038E049
:1010A0003046294600F0B2FA0028F0D04FF0FF3069
:1010B000BEE0039A111D12680391002A70DB0792AB
:1010C000013423782E2B7DD05E4F217838460322C1
:1010D00000F016FD30B1C71B4020B840049B01341E
:1010E00003430493217858480622671C8DF8281082
:1010F00000F006FD002800F08980544B002B7CD1C5
:10110000039B073323F0070308330393099B4344EE
:1011100009933B461C4613F8012B1AB9B4EB070997
:101120000ED002E0252AF5D1F8E7304629463A46A6
:101130004B46FFF77BFF013075D0099B4B44099369
:101140002378002B6FD000234FF0FF3204930793D6
:10115000059206938DF853301A9304F101093C4F20
:101160004C4638462178052200F0CAFC09F10109F5
:10117000049B28B1C71B0120B84003430493EEE74A
:10118000D90644BF20228DF853201A0744BF2B22D2
:101190008DF8532022782A2A8BD0079B214605E020
:1011A000524243F002030792049389E70C462278E7
:1011B0000131303A092A03D80A2000FB0323F5E75E
:1011C00007937EE763782A2B09D1039B02341A1D0B
:1011D0001B680392002BB8BF4FF0FF330BE0611C7C
:1011E00000230C4622780131303A092A03D80A201C
:1011F00000FB0323F5E7059366E703AB0093304656
:1012000004A92A46134BAFF3008007E003AB009319
:10121000304604A92A460F4B00F090F8B0F1FF3F8A
:1012200080467FF473AFAB895B063FF53FAF09980B
:101230001DB0BDE8F08300BF501F0008701F0008FC
:10124000901F0008221F0008261F00080000000051
:101250001C1F00082D1000082DE9F84315461F46F5
:101260008A680B6906469A42A8BF13462B6091F81C
:1012700043200C46DDF820800AB101332B6023683F
:10128000990602D52B6802332B60236813F00609F8
:101290001DD094F843302268003318BF0123920612
:1012A0001FD5E118302081F843005A1C94F84510EE
:1012B0002244023382F8431013E03046394604F1E9
:1012C00019020123C047013007D009F10109E26882
:1012D0002B68D31A9945F0DBDBE74FF0FF30BDE810
:1012E000F8833046394604F14302C0470130F4D058
:1012F00023682A6803F00603E168042B08BFC2EBE9
:1013000001052369A2680CBF25EAE57500259A420C
:10131000C4BFC3EB0203ED184FF00009A9450ADA78
:101320003046394604F11A020123C0470130D4D0B7
:1013300009F10109F2E70020BDE8F8832DE9FF4734
:101340000E7E80466E2E0C4691469A460C9D01F10B
:10135000430000F0A58011D8632E22D009D8002EBA
:1013600000F0AF80582E40F0BF8081F845607B4A86
:101370004FE0642E1ED0692E1CD0B5E0732E00F015
:10138000A48009D86F2E2BD0702E40F0AD800B6852
:1013900043F020030B6038E0752E21D0782E34D036
:1013A000A2E02B6801F142071A1D1B682A6081F830
:1013B00042309DE022682B6812F0800F03D01A1D86
:1013C0002A601D6805E05106F9D51A1D2A60B3F997
:1013D0000050002D39DA2D236D4284F8433034E07B
:1013E00022682B6812F0800F03D01A1D2A601D6836
:1013F00004E05206F9D51A1D2A601D88237E574A3B
:101400006F2B14BF0A2308231BE07823544A84F867
:1014100045302368296813F0800F01F104062E601F
:1014200001D00D6802E05F06FBD50D88DE0744BFE2
:1014300043F0200323601DB9236823F020032360B9
:101440001023002184F8431001E0444A0A2366680F
:10145000002EA66003DB216821F00401216005B99C
:101460006EB104F14201B5FBF3F603FB1655555D71
:101470000F4601F801593546002EF4D100E0074629
:10148000082B0AD12368DD0707D5626823699A42D1
:1014900003DC302307F8013C013FC01B20612CE036
:1014A00009682B6811F0800F626904D0191D29604A
:1014B0001B681A6005E04906F8D5191D29601B68EC
:1014C0001A8000232361074617E02B681A1D2A6043
:1014D0001F68384600F0A5FC63682061984288BF09
:1014E00023612369636005E004F1420784F84260E8
:1014F00001232361002384F84330CDF800A0404647
:10150000214603AA4B46FFF7A7FE013002D14FF058
:10151000FF301FE0404649463A462369D047013034
:10152000F5D023689B0705D4E068039B9842B8BFB9
:1015300018460FE00025E268039BD31A9D42F3DAB8
:101540004046494604F119020123D0470130DED05C
:101550000135F0E704B0BDE8F08700BF2D1F00089B
:101560003E1F000870B50E461446054618B1836943
:101570000BB900F0CDF9224B9C4201D16C6808E018
:10158000204B9C4201D1AC6803E01F4B9C4208BF3A
:10159000EC68A369A360A3891A0709D523693BB145
:1015A00023692068F6B2C01A636998420FDB08E02D
:1015B0002846214600F02AF80028F1D04FF0FF30ED
:1015C00070BD2846214600F013F90028F6D1A36823
:1015D0000130013BA36023685A1C22601E706369BE
:1015E000984204D0A389DB0707D50A2E05D12846E7
:1015F000214600F0FDF80028E0D1304670BD00BF64
:10160000501F0008701F0008901F0008324B70B573
:101610001D6806460C4625B1AB6913B9284600F093
:1016200077F92E4B9C4201D16C6808E02C4B9C4210
:1016300001D1AC6803E02B4B9C4208BFEC68A28947
:1016400093B2190720D4DD0605D4092342F04002E5
:101650003360A2813BE0580712D5616B41B104F1C0
:101660004403994202D0304600F060FA00236363DD
:10167000A38923F02403A3810023636023692360EB
:10168000A38943F00803A38123694BB9A38903F419
:101690002073B3F5007F03D03046214600F0DCF91B
:1016A000A38913F0010205D00022A26062695242B0
:1016B000A26103E0990758BF6269A26022694AB932
:1016C00003F0800080B230B143F04003A3814FF0BB
:1016D000FF3070BD002070BD88000020501F000842
:1016E000701F0008901F00088A892DE9F041054607
:1016F00010070C4657D44B68002B02DC0B6C002BF8
:1017000018DDE66AB6B102F48052002392B22F6867
:101710002B600AB1626D10E0216A28460123B047B0
:10172000411C024609D12B683BB11D2B01D0162B61
:1017300046D12F600020BDE8F081A3895B0705D565
:101740006368D21A636B0BB1236CD21AE66A28461F
:10175000216A0023B047461CA28905D12B681BB122
:101760001D2B01D0162B19D1002363602369D104EE
:10177000236004D5421C01D12B6803B96065616BFD
:101780002F600029D6D004F14403994202D02846A4
:1017900000F0CCF900206063BDE8F08142F0400227
:1017A000A281BDE8F0810E69002EC3D00B680E60E7
:1017B000C6EB030893070CBF4B6900238B6012E054
:1017C000A3894FF0FF3043F04003A381BDE8F081CF
:1017D000A76A2846216A32464346B8470028EFDD0B
:1017E0000644C0EB0808B8F1000FF1DCA2E70000E6
:1017F00038B50B6905460C46DBB118B183690BB9E6
:1018000000F086F80C4B9C4201D16C6808E00B4B51
:101810009C4201D1AC6803E0094B9C4208BFEC68D4
:10182000B4F90C302BB128462146BDE83840FFF70B
:101830005BBF002038BD00BF501F0008701F0008AC
:10184000901F0008014620B9044B0549186800F0B4
:10185000E5B8044B1868FFF7CBBF00BF181F00089E
:10186000F117000888000020F8B5074600F1480489
:1018700094B1A5686668013E0CD4AB89012B07D9E9
:10188000B5F90E30013303D038462946FFF7B0FFD3
:101890006835F0E72468EBE7F8BD0000002310B5D9
:1018A000044603604360836081814366C2810361B3
:1018B0004361836119465C30082200F02FF9054B23
:1018C00024626362044BA362044BE362044B236310
:1018D00010BD00BF9D1D0008BF1D0008F71D0008BA
:1018E0001B1E000870B54B1E68255D430E4605F1B2
:1018F000740100F05FF9044640B1002180E8420025
:101900000C30A06005F1680200F008F9204670BDB7
:10191000836910B5044633BB8364C3640365124B0B
:10192000124A1B688262984204BF0123836100F05F
:101930001FF86060204600F01BF8A060204600F011
:1019400017F80421E06000226068FFF7A7FFA06895
:1019500009210122FFF7A2FFE06812210222FFF70E
:101960009DFF0123A36110BD181F0008691800081E
:10197000F8B51B4B07461E68B36913B93046FFF72D
:10198000C7FF4836B4687368013B04D4B4F90C50FF
:1019900075B16834F8E733682BB938460421FFF78E
:1019A000A1FF306008B13668ECE70C233B60F8BD5E
:1019B0004FF6FF73E3810123A38165662560A5606F
:1019C000656025616561A56104F15C002946082216
:1019D00000F0A4F86563A563A564E5642046F8BD3E
:1019E000181F00082DE9F041884600F14804002640
:1019F0008CB1A5686768013F0BD4AB89012B06D970
:101A0000B5F90E30013302D02846C0470643683589
:101A1000F1E72468ECE73046BDE8F0812DE9F843B2
:101A20008046894600F14804002694B1A56867689D
:101A3000013F0CD4AB89012B07D9B5F90E30013326
:101A400003D040462946C84706436835F0E7246876
:101A5000EBE73046BDE8F883F0B58B8991B09E077F
:101A600005460C4625D4B1F90E10002908DAA389E1
:101A7000002713F0800F14BF40264FF480660DE05E
:101A800001AA00F0F9F90028F1DB029F4FF480660B
:101A900007F47047B7F500514F424F412846314691
:101AA00000F088F860B9A3899A051DD443F00203B9
:101AB000A38104F14703236023610123636113E0E1
:101AC0000A4BAB62A389206043F08003A3812061AD
:101AD00066614FB12846B4F90E1000F0DFF918B175
:101AE000A38943F00103A38111B0F0BD6918000878
:101AF000024B0146186800F05DB800BF8800002066
:101B000010B5C9B202449042034605D01C7801309A
:101B10008C42F8D1184610BD002010BD0244034687
:101B2000934202D003F8011BFAE7704730B5002951
:101B30003CD051F8042C0B1F1D49002AB8BF9B183C
:101B40000A680C4612B95A600B6030BD93420DD240
:101B500019685818904203D15A58114442681960C4
:101B60005A60236030BD994203D80A465168002963
:101B7000F9D1146815199D420AD11B682344D01865
:101B80008842136012D10868034413604B680CE06C
:101B900002D90C23036030BD18681C188C4203D195
:101BA0000C684968204418605960536030BD00BF1C
:101BB0009C00002070B5CD1C25F0030508350C2DC8
:101BC00038BF0C25002D06463FDB8D423DD3214B0F
:101BD0001C6818462146A1B10B685B1B0ED40B2B69
:101BE00003D90B60CC18CD501FE08C4202D1626843
:101BF00002601AE04B6863600C4616E00C464968C8
:101C0000E9E7154C23681BB9304600F0B7F82060AF
:101C10002946304600F0B2F8431C014615D0C41CDA
:101C200024F0030484420AD1256004F10B00231D33
:101C300020F00700C31A0BD05A42E25070BD304664
:101C4000611A00F09BF80130EED10C2333600020C4
:101C500070BD00BF9C00002098000020838903F025
:101C60000903092B01D1FFF7EDBD002070470000EB
:101C7000F8B50C46054618B183690BB9FFF748FE65
:101C8000394B9C4201D16C6808E0384B9C4201D131
:101C9000AC6803E0364B9C4208BFEC68A289002385
:101CA000636093B29E065AD458071AD4D90605D455
:101CB000092342F040022B60A28150E01A070BD5A5
:101CC00028462146FFF794FD002848D1A389A0604B
:101CD00023F00803A381A061A38943F00403A38137
:101CE00010E0616B71B104F14403994202D02846BF
:101CF000FFF71CFF236C00206063636013B1E36B8C
:101D00002360F8BD23691BB928462146FFF7A4FECE
:101D1000A789BEB2B3070FD00123A381154B164983
:101D2000186806F00906FFF75DFE092EA78103D1AA
:101D300028462146FFF7D8FC2269666A22602846B9
:101D4000216A6369B047002860600BDCA38917BF74
:101D5000002243F0200343F040036260A3814FF070
:101D6000FF30F8BD0020F8BD501F0008701F0008AC
:101D7000901F0008181F00085D1C000838B5064CAD
:101D80000023054608462360FEF76CFF431C02D182
:101D9000236803B12B6038BDB400002010B50C4699
:101DA000B1F90E1000F09CF8002803DB636D0344CA
:101DB000636510BDA38923F48053A38110BD2DE971
:101DC000F0411D468B890746DB050C46164605D5B6
:101DD000B1F90E100022022300F070F8A3893846F2
:101DE00023F48053A381B4F90E1032462B46BDE88C
:101DF000F04100F01FB810B50C46B1F90E1000F01C
:101E00005DF8431CA38903D123F48053A38110BD43
:101E100043F48053A381606510BDB1F90E1000F04A
:101E20001BB8034613F8012B002AFBD1181A0138FE
:101E30007047000038B5074C054600202060084672
:101E400011461A46FEF78CFF431C02D1236803B1EA
:101E50002B6038BDB400002038B5064C0023054681
:101E600008462360FEF71EFF431C02D1236803B11E
:101E70002B6038BDB400002038B5074C0023054660
:101E8000084611462360FEF719FF431C02D1236860
:101E900003B12B6038BD00BFB400002038B5064C3C
:101EA0000023054608462360FEF718FF431C02D1B5
:101EB000236803B12B6038BDB400002038B5074C4F
:101EC000054600202060084611461A46FEF712FF1C
:101ED000431C02D1236803B12B6038BDB40000203D
:101EE00038B5074C054600202060084611461A46C2
:101EF000FEF70EFF431C02D1236803B12B6038BDEF
:101F0000B4000020426F6F740D000000783D25641E
:101F10000D0000004300000028000020232D302B7E
:101F20002000686C4C0065666745464700303132DA
:101F30003334353637383941424344454600303131
:101F40003233343536373839616263646566000090
:101F50000000000000000000000000000000000081
:101F60000000000000000000000000000000000071
:101F70000000000000000000000000000000000061
:101F80000000000000000000000000000000000051
:101F90000000000000000000000000000000000041
:101FA0000000000000000000000000000000000031
:101FB00000A24A0400000000000000000102030427
:101FC00006070809000000000102030401020304DF
:101FD000060708090204060800000000501F000858
:101FE000701F0008901F00080000000000000000A3
:101FF0000000000000000000141F000800000000A6
:1020000000000000000000000000000000000000D0
:1020100000000000000000000000000000000000C0
:1020200000000000000000000000000000000000B0
:0C2030000000000000000000280000205C
:0400000508000000EF
:00000001FF
