:020000040800F2
:100000007008002081020008E1020008E1020008F7
:10001000E1020008E1020008E1020008000000001F
:10002000000000000000000000000000E1020008E5
:10003000E102000800000000E102000821050008BC
:10004000E1020008E1020008E1020008E102000804
:10005000E1020008E1020008E1020008E1020008F4
:10006000E1020008E1020008E1020008E1020008E4
:10007000E1020008E1020008E1020008E1020008D4
:10008000E1020008E1020008E1020008E1020008C4
:10009000E1020008E1020008E1020008E1020008B4
:1000A000E1020008E1020008E1020008E1020008A4
:1000B000E1020008E1020008E1020008E102000894
:1000C000E1020008E1020008E1020008E102000884
:1000D000E1020008E1020008E1020008E102000874
:1000E000E1020008E1020008E1020008000000004F
:1000F0000000000000000000000000000000000000
:1001000000000000000000005FF808F180B500AFBB
:10011000154B154A126842F001021A60124A124B3E
:100120005968124B0B4053600F4A0F4B1B6823F06A
:10013000847323F4803313600B4B0B4A126822F450
:1001400080221A60084B084A526822F4FE025A6064
:10015000054B4FF41F029A6000F00CF8044B4FF06F
:1001600000629A6080BD00BF001002400000FFF8EE
:1001700000ED00E080B500AF00F002F880BD00BFE8
:1001800080B483B000AF00237B6000233B603A4B18
:10019000394A126842F480321A60374B1B6803F404
:1001A00000333B607B6801337B603B68002B03D1ED
:1001B0007B68B3F5A06FF0D12F4B1B6803F40033BD
:1001C000002B02D001233B6001E000233B603B6831
:1001D000012B4BD1294B294A126842F010021A60B8
:1001E000264B264A126822F003021A60234B234A48
:1001F000126842F002021A601F4B1F4A52685A608E
:100200001D4B1D4A52685A601B4B1B4A526842F4F0
:1002100080625A60184B184A526822F47C125A6065
:10022000154B154A526842F4E8125A60124B124AB2
:10023000126842F080721A6000BF0F4B1B6803F017
:100240000073002BF9D00C4B0B4A526822F00302CA
:100250005A60094B084A526842F002025A6000BFD5
:10026000054B5B6803F00C03082BF9D10C37BD4636
:100270005DF8047B704700BF001002400020024080
:1002800080B582B000AF114B7B60114B3B6007E043
:100290003B681A1D3A607A68111D796012681A600D
:1002A0003A680C4B9A42F3D30B480C494FF00002CA
:1002B0008842B8BF40F8042BFFF6FAAFFFF726FFDD
:1002C00000F03CF90837BD4680BD00BF3C11000876
:1002D000000000205C0400205C040020700400206A
:1002E00080B400AFFEE700BF80B489B000AF786093
:1002F00039600023FB6100233B610023BB610023C5
:10030000FB6000237B610023BB603B68DB7803F06C
:100310000F03FB613B68DB7803F01003002B04D074
:100320003B689B78FA691343FB613B681B88DBB22F
:10033000002B44D07B681B687B610023BB6138E0E5
:10034000BB69012202FA03F3FB603B681B881A4673
:10035000FB6813403B613A69FB689A4226D1BB694E
:100360009B00FB60FB680F2202FA03F3BB60BB68D3
:10037000DB437A6913407B61FB68FA6902FA03F395
:100380007A6913437B613B68DB78282B05D1BB6915
:1003900001229A407B685A6108E03B68DB78482B71
:1003A00004D1BB6901229A407B681A61BB690133A1
:1003B000BB61BB69072BC3D97B687A691A603B684C
:1003C0001B88FF2B46D97B685B687B610023BB6180
:1003D0003AE0BB690833012202FA03F3FB603B6891
:1003E0001B881A46FB6813403B613A69FB689A42D6
:1003F00027D1BB699B00FB60FB680F2202FA03F365
:10040000BB60BB68DB437A6913407B61FB68FA69B8
:1004100002FA03F37A6913437B613B68DB78282B8C
:1004200005D1BB69083301229A407B685A613B6859
:10043000DB78482B05D1BB69083301229A407B68E1
:100440001A61BB690133BB61BB69072BC1D97B68EA
:100450007A695A602437BD465DF8047B704700BF57
:1004600080B483B000AF78600B467B80054B054AB3
:10047000D26882F40052DA600C37BD465DF8047B26
:10048000704700BF0010014080B483B000AF034646
:100490003960FB7197F90730002B0BDA0D49FB79B6
:1004A00003F00F03043B3A68D2B21201D2B20B44FC
:1004B0001A7609E0084997F907303A68D2B2120172
:1004C000D2B20B4483F800230C37BD465DF8047BA1
:1004D000704700BF00ED00E000E100E080B582B0B1
:1004E00000AF78607B68B3F1807F01D3012311E016
:1004F0000A4B7A6822F07F42013A5A604FF0FF308F
:100500000F21FFF7C1FF054B00229A60034B072222
:100510001A60002318460837BD4680BD10E000E091
:1005200080B400AF044B1B685A1C034B1A60BD46D5
:100530005DF8047B704700BF6C04002080B500AFFD
:100540001F4B1A681F4BA3FB02139B091846FFF7AA
:10055000C5FF00F047F81C4B1A681C4B1A601B4B78
:100560001A681B4B1B68D31AC82B18D9174B1A686B
:10057000174B1A6017484FF40051FFF771FF164BE5
:100580001B781648194600F083FB0A2000F07EF81D
:10059000114B1B780133DAB20F4B1A7008E007E0F9
:1005A0000F4800F089FD0346DBB2184600F06EF8F4
:1005B0000B48202100F090FD0346012BF0D0CAE744
:1005C00000000020D34D62106C0400206404002061
:1005D0005C0400200010014060040020101100089D
:1005E0000038014080B584B000AF1020012100F038
:1005F00059FC224B4FF400521A80204B1022DA7023
:100600001E4B03229A701E481C49FFF76DFE44F2F0
:100610000400012100F046FC184B4FF400721A80D0
:10062000164B1822DA70154B03229A70154813499D
:10063000FFF75AFE114B4FF480621A800F4B0422D1
:10064000DA7010480D49FFF74FFE4FF4E1333B607D
:100650000023BB800023FB8000233B810023BB8160
:100660000C237B813B460848194600F039FC0648BC
:10067000012100F0EFFC1037BD4680BD680400206A
:1006800000100140000801400038014080B582B0F0
:1006900000AF0346FB7100BF0748402100F01CFD7E
:1006A0000346002BF8D0FB799BB20348194600F0B3
:1006B000F1FC0837BD4680BD0038014080B483B0EE
:1006C00000AF78600B46FB707B68FA781A700123E4
:1006D00018460C37BD465DF8047B704780B485B082
:1006E00000AF786039600023FB600AE07B685A1C29
:1006F0007A603A68511C396012781A70FB680133CD
:10070000FB603B681B78002BF0D1FB681846143760
:10071000BD465DF8047B704780B586B000AFF860D9
:100720007A603B600B46FB7200237B617B68013B78
:100730007B603B68092B10D93A681E4BA3FB021360
:10074000DB08FA7AF86811467A68FFF7E5FF786106
:100750007B69FA681344FB6011E00DE0FB7AF868EE
:100760001946FFF7ABFFFB680133FB607B69013380
:100770007B617B68013B7B607B68002BEEDC39682A
:100780000C4BA3FB0123DA0813469B0013445B00C8
:10079000CA1AD3B23033DBB2F8681946FFF78EFFBE
:1007A00003467A6913447B617B6918461837BD4656
:1007B00080BD00BFCDCCCCCC80B586B000AFF8609A
:1007C0007A603B600B46FB7200237B613B68002B29
:1007D00003DA3B685B423B6101E03B683B617B685D
:1007E000013B7B603B69092B21D93B68002B0DDA6B
:1007F0003A692F4BA3FB0213DB085B42FA7AF868D5
:1008000011467A68FFF7D8FF78610BE03A69284B08
:10081000A3FB0213DB08FA7AF86811467A68FFF73F
:10082000CBFF78617B69FA681344FB6026E03B6884
:10083000002B03DA7B68013B7B600EE00DE0FB7A66
:10084000F8681946FFF73AFFFB680133FB607B69E4
:1008500001337B617B68013B7B607B68002BEEDCB6
:100860003B68002B0ADAF8682D21FFF727FF0346C3
:100870007A6913447B61FB680133FB6039690C4B77
:10088000A3FB0123DA0813469B0013445B00CA1A3A
:10089000D3B23033DBB2F8681946FFF70FFF0346D7
:1008A0007A6913447B617B6918461837BD4680BD61
:1008B000CDCCCCCC80B588B002AFF8607A600A4667
:1008C000FA72BB7200237B617B68013B7B603B6AF1
:1008D0001B09002B12D03B6A1909FA7ABB7A0091E6
:1008E000F86811467A68FFF7E5FF03467A69134412
:1008F0007B617B69FA681344FB6011E00DE0FB7AD1
:10090000F8681946FFF7DAFEFB680133FB607B6984
:1009100001337B617B68013B7B607B68002BEEDCF5
:100920003B6A03F00F03092B0BD83B6ADBB203F0E1
:100930000F03DBB23033DBB2F8681946FFF7BEFEB7
:1009400019E0BB7A002B0BD03B6ADBB203F00F033C
:10095000DBB23733DBB2F8681946FFF7AFFE0AE0C7
:100960003B6ADBB203F00F03DBB25733DBB2F8684C
:100970001946FFF7A3FE7B6901337B617B6918464B
:100980001837BD4680BD00BF80B58AB002AFF860A1
:10099000B9607A603B600023BB6100237B61FB6828
:1009A000002B03D0FB6800221A70F8E0F7E07B68A8
:1009B0001B78252B0BD0FB685A1CFA607A68511CF7
:1009C000796012781A707B6901337B61E7E07B689C
:1009D00001331B78252B0BD1FB685A1CFA602522AA
:1009E0001A707B6802337B607B6901337B61D6E0E0
:1009F0002023FB770023BB777B6801337B607B6818
:100A00001B78302B05D13023FB777B6801337B606B
:100A10000FE00EE0BB7F1A46920013445B00DAB28F
:100A20007B681B781344DBB2303BBB777B680133B8
:100A30007B607B681B782F2B03D97B681B78392B55
:100A4000E8D9BA7F7B6913441A46BB689A4205D934
:100A5000BB68DAB27B69DBB2D31ABB777B681B78E1
:100A6000583B202B00F28D8001A252F823F000BFEA
:100A70003D0B0008830B0008830B0008830B000864
:100A8000830B0008830B0008830B0008830B00080E
:100A9000830B0008830B0008830B00086D0B000814
:100AA000F50A0008830B0008830B0008830B00087D
:100AB000830B0008F50A0008830B0008830B00086D
:100AC000830B0008830B0008830B0008830B0008CE
:100AD000830B0008830B0008830B0008590B0008E8
:100AE000830B00080B0B0008830B0008830B000826
:100AF000210B0008BA7F3B68191D39601B68F97F1C
:100B0000F868FFF759FEB8613EE0BA7F3B68191DEF
:100B100039601B68F97FF868FFF7FEFDB86133E0C4
:100B2000BA7F3B68191D39601968FB7F0091F8682E
:100B300019460023FFF7BEFEB86125E0BA7F3B6887
:100B4000191D39601968FB7F0091F8681946012367
:100B5000FFF7B0FEB86117E03B681A1D3A601B68EA
:100B6000F8681946FFF7BAFDB8610DE03B681A1D39
:100B70003A601B68DBB2F8681946FFF79FFDB86161
:100B800002E04FF0FF3325E07B6801337B60BB69F7
:100B9000FA681344FB607A69BB6913447B617B6824
:100BA0001B78002B04D07A69BB689A42FFF4FFAE31
:100BB0007A69BB689A4203D2FB6800221A7008E087
:100BC000FB68013BFB60FB6800221A707B69013BFC
:100BD0007B617B6918462037BD4680BD80B584B0F7
:100BE00000AFF860B9607A60F8686421BA687B6821
:100BF000FFF7CAFE034618461037BD4680BD00BF4A
:100C0000B0B5A6B000AFF860B9607A60144B07F1D8
:100C100010041D460FCD0FC40FCD0FC42B682360E9
:100C200007F134031846B9687A68FFF7D7FF03461F
:100C3000632B09DD0B4B1B68DB6807F110021046C4
:100C4000194600F059F8FEE707F134031846F96831
:100C500000F052F8034618469837BD46B0BD00BFB5
:100C6000181100084004002080B582B000AF786001
:100C70003960064B1B689B68184679683A68FFF72D
:100C8000BFFF034618460837BD4680BD400400201C
:100C90000FB480B582B000AF07F114033B60386930
:100CA0003968FFF7E1FF78607B6818460837BD4672
:100CB000BDE8804004B0704780B582B000AF786076
:100CC00039600C4B1B689A683B689A4205D0094B07
:100CD0001B68DA683B689A4206D17B68DBB218462B
:100CE000FFF7D4FC7B6801E04FF0FF33184608376C
:100CF000BD4680BD4004002080B584B000AF786060
:100D000039600023FB6012E07B681B781846396865
:100D1000FFF7D2FF0346B3F1FF3F02D14FF0FF339D
:100D20000AE0FB680133FB607B6801337B607B6812
:100D30001B78002BE8D1FB6818461037BD4680BDF4
:100D400080B487B000AF786000237B6100233B61F3
:100D50000023FB600023BB604D4B5B6803F00C037A
:100D60007B617B69042B07D0082B09D0002B34D181
:100D70007B68484A1A6034E07B68464A1A6030E073
:100D8000434B5B6803F470133B61414B5B6803F4B6
:100D90008033FB603B699B0C02333B61FB68002B9B
:100DA00006D13B693C4A02FB03F27B681A6013E000
:100DB000374B5B6803F40033002B06D03B69364A9F
:100DC00002FB03F27B681A6006E03B69314A02FBD2
:100DD00003F27B681A6004E003E07B682D4A1A6026
:100DE00000BF2B4B5B6803F0F0037B617B691B0941
:100DF0007B612A4A7B6913441B78DBB2BB607B684A
:100E00001A68BB68DA407B685A60214B5B6803F460
:100E1000E0637B617B691B0A7B61204A7B69134429
:100E20001B78DBB2BB607B685A68BB68DA407B68C2
:100E30009A60174B5B6803F460537B617B69DB0A44
:100E40007B61164A7B6913441B78DBB2BB607B680D
:100E50005A68BB68DA407B68DA600D4B5B6803F464
:100E600040437B617B699B0B7B610D4A7B6913442B
:100E70001B78DBB2BB607B68DA68BB68B2FBF3F25D
:100E80007B681A611C37BD465DF8047B704700BF64
:100E90000010024000127A0000093D0048040020C2
:100EA0005804002080B483B000AF78600B46FB701C
:100EB000FB78002B06D0094B084A91697A680A43EF
:100EC0009A6106E0054B054A91697A68D2430A4067
:100ED0009A610C37BD465DF8047B704700100240F4
:100EE00080B58CB000AF786039600023FB620023CE
:100EF000BB6200237B6200233B620023FB617B68B3
:100F0000FB617B681B8A9BB2FB62FA6A4CF6FF733B
:100F10001340FB623B68DB88FA6A1343FB62FB6A9F
:100F20009AB27B681A827B689B899BB2FB62FA6AE1
:100F30004EF6F3131340FB623B689A883B681B89AB
:100F400013439AB23B685B8913439BB2FA6A13431B
:100F5000FB62FB6A9AB27B689A817B689B8A9BB230
:100F6000FB62FA6A4FF6FF431340FB623B689B89C2
:100F7000FA6A1343FB62FB6A9AB27B689A8207F1B2
:100F800008031846FFF7DCFEFA69304B9A4202D19B
:100F90007B69BB6201E03B69BB627B689B899BB25A
:100FA0009BB21BB2002B0CDABA6A13469B001344A7
:100FB0009A001A443B681B685B00B2FBF3F37B6248
:100FC0000BE0BA6A13469B0013449A001A443B682C
:100FD0001B689B00B2FBF3F37B627A6A1C4BA3FB9A
:100FE00002135B091B01FB62FB6A1B09642202FB03
:100FF00003F37A6AD31A3B627B689B899BB29BB2EC
:101000001BB2002B0DDA3B6ADB0003F13202104BFE
:10101000A3FB02135B0903F00703FA6A1343FB62A5
:101020000CE03B6A1B0103F13202094BA3FB0213E4
:101030005B0903F00F03FA6A1343FB62FB6A9AB27F
:101040007B681A813037BD4680BD00BF0038014043
:101050001F85EB5180B483B000AF78600B46FB7006
:10106000FB78002B08D07B689B899BB243F400532C
:101070009AB27B689A8107E07B689B899BB223F4D4
:1010800000539AB27B689A810C37BD465DF8047BA9
:10109000704700BF80B483B000AF78600B467B80A0
:1010A0007B88C3F308039AB27B689A800C37BD46ED
:1010B0005DF8047B704700BF80B483B000AF7860F8
:1010C0007B689B889BB2C3F308039BB218460C371E
:1010D000BD465DF8047B704780B485B000AF786092
:1010E0000B467B800023FB737B681B889AB27B884E
:1010F00013409BB2002B02D00123FB7301E00023BD
:10110000FB73FB7B18461437BD465DF8047B7047C4
:10111000783D25640D000000737464696F2E633A96
:1011200020696E637265617365204D41585F535449
:0C11300052494E475F53495A450A0D00D2
:10113C0000A24A04000000000000000001020304A9
:10114C000607080900000000000000000000000075
:10115C000100000000000000000000000000000082
:10116C000000000000000000000000000000000073
:10117C000000000000000000000000000000000063
:10118C000000000000000000000000000000000053
:10119C000000000000000000000000000000000043
:10157C00180000200000000000000000010203041D
:0C158C0001020304060708090204060817
:0400000508000000EF
:00000001FF
