:020000040800F2
:10000000700C002099030008F5030008F5030008B0
:10001000F5030008F5030008F503000800000000E0
:10002000000000000000000000000000F5030008D0
:10003000F503000800000000F5030008950400081F
:10004000F5030008F5030008F5030008F5030008B0
:10005000F5030008F5030008F5030008F5030008A0
:10006000F5030008F5030008F5030008F503000890
:10007000F5030008F5030008F5030008F503000880
:10008000F5030008F5030008F5030008F503000870
:10009000F5030008F5030008F5030008F503000860
:1000A000F5030008F5030008F5030008F503000850
:1000B000F5030008F5030008F5030008F503000840
:1000C000F5030008F5030008F5030008F503000830
:1000D000F5030008F5030008F5030008F503000820
:1000E000F5030008F5030008F5030008F503000810
:1000F000F5030008F5030008F5030008F503000800
:10010000F5030008F5030008F5030008F5030008EF
:10011000F5030008F5030008F5030008F5030008DF
:10012000F5030008F5030008F5030008F5030008CF
:10013000F5030008F5030008F5030008F5030008BF
:10014000F5030008F5030008F5030008F5030008AF
:10015000F5030008F5030008F5030008F50300089F
:10016000F5030008F5030008F5030008F50300088F
:10017000F5030008F5030008F5030008F50300087F
:10018000F5030008F503000880B58AB000AF786079
:10019000396000237B6200233B620023FB61002364
:1001A000BB617B681B8A9BB27B627B6A23F44053F2
:1001B0007B623B68DB887A6A13437B627B6A9AB214
:1001C0007B681A827B689B899BB27B627B6A23F483
:1001D000B05323F00C037B623B689A883B681B8911
:1001E00013439AB23B685B8913439BB27A6A134309
:1001F0007B627B6A9AB27B689A817B689B8A9BB29E
:100200007B627B6A23F440737B623B689B897A6ADA
:1002100013437B627B6A9AB27B689A8207F1080378
:10022000184600F0F9F97A68314B9A4203D07A689F
:10023000304B9A4202D17B693B6201E03B693B62F1
:100240007B689B899BB29BB21BB2002B0CDA3A6A8B
:1002500013469B0013449A001A443B681B685B00DA
:10026000B2FBF3F3FB610BE03A6A13469B001344C5
:100270009A001A443B681B689B00B2FBF3F3FB61D6
:10028000FA691D4BA3FB02135B091B017B627B6AAE
:100290001B09642202FB03F3FA69D31ABB617B6872
:1002A0009B899BB29BB21BB2002B0DDABB69DB00B2
:1002B00003F13202104BA3FB02135B0903F00703A7
:1002C0007A6A13437B620CE0BB691B0103F13202C3
:1002D000094BA3FB02135B0903F00F037A6A134374
:1002E0007B627B6A9AB27B681A812837BD4680BDE3
:1002F00000100140001401401F85EB5180B483B011
:1003000000AF78600B46FB70FB78002B08D07B6851
:100310009B899BB243F400539AB27B689A8107E0B1
:100320007B689B899BB223F400539AB27B689A81C5
:100330000C37BD465DF8047B704700BF80B483B0C6
:1003400000AF78600B467B807B88C3F308039AB2CA
:100350007B689A800C37BD465DF8047B704700BF10
:1003600080B485B000AF78600B467B800023FB73C0
:100370007B681B889AB27B8813409BB2002B02D00B
:100380000123FB7301E00023FB73FB7B184614374A
:10039000BD465DF8047B704780B582B000AF104B5E
:1003A0007B60104B3B6007E03B681A1D3A607A683F
:1003B000111D796012681A603A680B4B9A42F3D3A8
:1003C0000A480B494FF000028842B8BF40F8042B9E
:1003D000FFF6FAAF00F06CF80837BD4680BD00BFED
:1003E0000C120008000000205404002054040020D7
:1003F0006C04002080B400AFFEE700BF80B483B07F
:1004000000AF03463960FB7197F90730002B0BDA18
:100410000D49FB7903F00F03043B3A68D2B2120195
:10042000D2B20B441A7609E0084997F907303A68C6
:10043000D2B21201D2B20B4483F800230C37BD466E
:100440005DF8047B704700BF00ED00E000E100E0D4
:1004500080B582B000AF78607B68B3F1807F01D354
:10046000012311E00A4B7A6822F07F42013A5A6078
:100470004FF0FF300F21FFF7C1FF054B00229A60BC
:10048000034B07221A60002318460837BD4680BD7B
:1004900010E000E080B400AF044B1B685A1C034B13
:1004A0001A60BD465DF8047B704700BF68040020F9
:1004B00080B500AF00F0EEFD184B1A68184BA3FB97
:1004C00002139B091846FFF7C3FF00F037F8154BDE
:1004D0001A68154B1A60144B1A68144B1B68D31A10
:1004E000B3F5FA7F18D9104B1A68104B1A601048F0
:1004F000402100F077FD0E48802100F073FD0D4B88
:100500001B780D48194600F06FFC0A4B1B7801332D
:10051000DAB2084B1A70DAE7D9E700BF40040020CE
:10052000D34D6210680400205C04002054040020B5
:100530000000024058040020E011000880B584B09B
:1005400000AF1120012100F011F9304BC0221A60D8
:100550002E4B01221A712D4B00229A712B4B032234
:100560005A712A4B0022DA712948284900F094FC7C
:1005700027484021012200F01DFD2548802100224E
:1005800000F018FD214B4FF400721A601F4B02223D
:100590001A711E4B00229A711C4B03225A711B4B7D
:1005A0000022DA711A48194900F076FC184809212E
:1005B000072200F029FD154B4FF480621A60134B9F
:1005C00000221A71114B0022DA7111480F4900F014
:1005D00063FC1020012100F0E7F84FF4E1333B60A9
:1005E0000023BB800023FB8000233B810023BB81D1
:1005F0000C237B813B4607481946FFF7C5FD05489C
:100600000121FFF77BFE1037BD4680BD600400204E
:10061000000002400010014080B489B000AF786053
:100620000023BB6100237B610023FB6102233B614C
:100630000023FB600223BB60484B9B6803F00C0364
:10064000BB61BB69042B07D0082B09D0002B3FD11D
:100650007B68434A1A603FE07B68424A1A603BE08D
:100660003E4B5B6803F480039B0DFB603B4B5B6878
:1006700003F03F03BB60FB68002B0DD0394ABB6819
:10068000B2FBF3F2354B596847F6C0730B409B0938
:1006900003FB02F3FB610CE0314ABB68B2FBF3F2EF
:1006A0002E4B596847F6C0730B409B0903FB02F3BE
:1006B000FB612A4B5B6803F440331B0C01335B0086
:1006C0003B61FA693B69B2FBF3F27B681A6003E0B5
:1006D0007B68234A1A6000BF204B9B6803F0F0033D
:1006E000BB61BB691B09BB611F4ABB6913441B7813
:1006F000DBB27B617B681A687B69DA407B685A6091
:10070000164B9B6803F4E053BB61BB699B0ABB615A
:10071000154ABB6913441B78DBB27B617B685A685E
:100720007B69DA407B689A600C4B9B6803F46043FA
:10073000BB61BB695B0BBB610B4ABB6913441B7894
:10074000DBB27B617B685A687B69DA407B68DA6080
:100750002437BD465DF8047B704700BF0038024077
:100760000024F40000127A000000002080B483B05E
:1007700000AF78600B46FB70FB78002B06D0094B6E
:10078000084A116B7A680A431A6306E0054B054A6A
:10079000116B7A68D2430A401A630C37BD465DF884
:1007A000047B70470038024080B483B000AF7860AB
:1007B0000B46FB70FB78002B06D0094B084A516CA6
:1007C0007A680A435A6406E0054B054A516C7A6818
:1007D000D2430A405A640C37BD465DF8047B70472B
:1007E0000038024080B582B000AF0346FB7100BF05
:1007F00007484021FFF7B4FD0346002BF8D0FB79F2
:100800009BB203481946FFF799FD0837BD4680BDE6
:100810000010014080B483B000AF78600B46FB70DD
:100820007B68FA781A70012318460C37BD465DF8CC
:10083000047B704780B485B000AF786039600023D6
:10084000FB600AE07B685A1C7A603A68511C396088
:1008500012781A70FB680133FB603B681B78002B31
:10086000F0D1FB6818461437BD465DF8047B70472D
:1008700080B586B000AFF8607A603B600B46FB72D3
:1008800000237B617B68013B7B603B68092B10D9AF
:100890003A681E4BA3FB0213DB08FA7AF86811468C
:1008A0007A68FFF7E5FF78617B69FA681344FB60BB
:1008B00011E00DE0FB7AF8681946FFF7ABFFFB6823
:1008C0000133FB607B6901337B617B68013B7B60AB
:1008D0007B68002BEEDC39680C4BA3FB0123DA08A4
:1008E00013469B0013445B00CA1AD3B23033DBB209
:1008F000F8681946FFF78EFF03467A6913447B6157
:100900007B6918461837BD4680BD00BFCDCCCCCC26
:1009100080B586B000AFF8607A603B600B46FB7232
:1009200000237B613B68002B03DA3B685B423B6141
:1009300001E03B683B617B68013B7B603B69092BC5
:1009400021D93B68002B0DDA3A692F4BA3FB021328
:10095000DB085B42FA7AF86811467A68FFF7D8FF3D
:1009600078610BE03A69284BA3FB0213DB08FA7AA3
:10097000F86811467A68FFF7CBFF78617B69FA68FF
:100980001344FB6026E03B68002B03DA7B68013BE5
:100990007B600EE00DE0FB7AF8681946FFF73AFF3E
:1009A000FB680133FB607B6901337B617B68013B42
:1009B0007B607B68002BEEDC3B68002B0ADAF86872
:1009C0002D21FFF727FF03467A6913447B61FB68FB
:1009D0000133FB6039690C4BA3FB0123DA08134692
:1009E0009B0013445B00CA1AD3B23033DBB2F86801
:1009F0001946FFF70FFF03467A6913447B617B6951
:100A000018461837BD4680BDCDCCCCCC80B588B05B
:100A100002AFF8607A600A46FA72BB7200237B610B
:100A20007B68013B7B603B6A1B09002B12D03B6A51
:100A30001909FA7ABB7A0091F86811467A68FFF7CB
:100A4000E5FF03467A6913447B617B69FA681344C6
:100A5000FB6011E00DE0FB7AF8681946FFF7DAFE5B
:100A6000FB680133FB607B6901337B617B68013B81
:100A70007B607B68002BEEDC3B6A03F00F03092BE5
:100A80000BD83B6ADBB203F00F03DBB23033DBB2CF
:100A9000F8681946FFF7BEFE19E0BB7A002B0BD0B1
:100AA0003B6ADBB203F00F03DBB23733DBB2F8682B
:100AB0001946FFF7AFFE0AE03B6ADBB203F00F0313
:100AC000DBB25733DBB2F8681946FFF7A3FE7B6948
:100AD00001337B617B6918461837BD4680BD00BF76
:100AE00080B58AB002AFF860B9607A603B600023DD
:100AF000BB6100237B61FB68002B03D0FB680022F5
:100B00001A70F8E0F7E07B681B78252B0BD0FB68A8
:100B10005A1CFA607A68511C796012781A707B69E5
:100B200001337B61E7E07B6801331B78252B0BD118
:100B3000FB685A1CFA6025221A707B6802337B60BE
:100B40007B6901337B61D6E02023FB770023BB77F1
:100B50007B6801337B607B681B78302B05D13023A9
:100B6000FB777B6801337B600FE00EE0BB7F1A46AA
:100B7000920013445B00DAB27B681B781344DBB24B
:100B8000303BBB777B6801337B607B681B782F2B06
:100B900003D97B681B78392BE8D9BA7F7B6913446A
:100BA0001A46BB689A4205D9BB68DAB27B69DBB2E8
:100BB000D31ABB777B681B78583B202B00F28D80C3
:100BC00001A252F823F000BF950C0008DB0C0008CE
:100BD000DB0C0008DB0C0008DB0C0008DB0C000859
:100BE000DB0C0008DB0C0008DB0C0008DB0C000849
:100BF000DB0C0008C50C00084D0C0008DB0C0008DD
:100C0000DB0C0008DB0C0008DB0C00084D0C0008B6
:100C1000DB0C0008DB0C0008DB0C0008DB0C000818
:100C2000DB0C0008DB0C0008DB0C0008DB0C000808
:100C3000DB0C0008B10C0008DB0C0008630C00089A
:100C4000DB0C0008DB0C0008790C0008BA7F3B685D
:100C5000191D39601B68F97FF868FFF759FEB86104
:100C60003EE0BA7F3B68191D39601B68F97FF86860
:100C7000FFF7FEFDB86133E0BA7F3B68191D3960AC
:100C80001968FB7F0091F86819460023FFF7BEFE44
:100C9000B86125E0BA7F3B68191D39601968FB7F90
:100CA0000091F86819460123FFF7B0FEB86117E01C
:100CB0003B681A1D3A601B68F8681946FFF7BAFDD1
:100CC000B8610DE03B681A1D3A601B68DBB2F8683A
:100CD0001946FFF79FFDB86102E04FF0FF3325E0B2
:100CE0007B6801337B60BB69FA681344FB607A69F7
:100CF000BB6913447B617B681B78002B04D07A6945
:100D0000BB689A42FFF4FFAE7A69BB689A4203D28D
:100D1000FB6800221A7008E0FB68013BFB60FB687F
:100D200000221A707B69013B7B617B691846203782
:100D3000BD4680BD80B584B000AFF860B9607A6010
:100D4000F8686421BA687B68FFF7CAFE0346184654
:100D50001037BD4680BD00BFB0B5A6B000AFF8608B
:100D6000B9607A60144B07F110041D460FCD0FC413
:100D70000FCD0FC42B68236007F134031846B96800
:100D80007A68FFF7D7FF0346632B09DD0B4B1B681F
:100D9000DB6807F110021046194600F059F8FEE72B
:100DA00007F134031846F96800F052F80346184674
:100DB0009837BD46B0BD00BFE811000838040020D8
:100DC00080B582B000AF78603960064B1B689B68C5
:100DD000184679683A68FFF7BFFF03461846083798
:100DE000BD4680BD380400200FB480B582B000AF8E
:100DF00007F114033B6038693968FFF7E1FF786059
:100E00007B6818460837BD46BDE8804004B070478F
:100E100080B582B000AF786039600C4B1B689A686F
:100E20003B689A4205D0094B1B68DA683B689A42D6
:100E300006D17B68DBB21846FFF7D4FC7B6801E083
:100E40004FF0FF3318460837BD4680BD38040020F8
:100E500080B584B000AF786039600023FB6012E099
:100E60007B681B7818463968FFF7D2FF0346B3F159
:100E7000FF3F02D14FF0FF330AE0FB680133FB6014
:100E80007B6801337B607B681B78002BE8D1FB68B3
:100E900018461037BD4680BD80B487B000AF78607B
:100EA000396000237B6100233B610023FB6000234A
:100EB0007B6176E07B69012202FA03F33B613B68C8
:100EC0001A683B691340FB60FA683B699A4265D136
:100ED0007B681A687B695B00032101FA03F3DB433B
:100EE0001A407B681A607B681A683B681B79194650
:100EF0007B695B0001FA03F31A437B681A603B6865
:100F00001B79012B03D03B681B79022B2ED17B6808
:100F10009A687B695B00032101FA03F3DB431A4003
:100F20007B689A607B689A683B685B7919467B6945
:100F30005B0001FA03F31A437B689A607B685A6886
:100F40007B699BB2012101FA03F3DB431A407B6802
:100F50005A607B685A683B689B7919467B699BB2EB
:100F600001FA03F39BB21A437B685A607B68DA6824
:100F70007B699BB25B00032101FA03F3DB431A4058
:100F80007B68DA607B68DA683B68DB7919467B69E5
:100F90005B0001FA03F31A437B68DA607B69013373
:100FA0007B617B690F2B85D91C37BD465DF8047BBF
:100FB000704700BF80B483B000AF786013460A4624
:100FC0007A807B707B78002B03D07B687A881A83C9
:100FD00002E07B687A885A830C37BD465DF8047B53
:100FE000704700BF80B483B000AF78600B467B8051
:100FF0007B685A697B885A407B685A610C37BD46CA
:101000005DF8047B704700BF80B485B000AF7860A6
:1010100013460A467A807B700023FB600023BB6086
:101020007A787B8803F007039B0002FA03F3FB60E6
:101030007B88DB089BB21A467B88DB089BB219468B
:101040007B68083153F821107B8803F007039B006D
:101050000F2000FA03F3DB4319407B68083243F8A2
:1010600022107B88DB089BB21A467B68083253F853
:101070002220FB681343BB607B88DB089BB21A46C7
:101080007B680832B96843F822101437BD465DF812
:10109000047B704780B500AF114B114A126842F0D3
:1010A00001021A600E4B00229A600D4A0C4B1B681D
:1010B00023F0847323F480331360094B094A5A6088
:1010C000074B074A126822F480221A60044B002260
:1010D000DA6000F00BF8044B4FF000629A6080BDBC
:1010E000003802401030002400ED00E080B483B0EE
:1010F00000AF00237B6000233B60354B344A12680D
:1011000042F480321A60324B1B6803F400333B60B8
:101110007B6801337B603B68002B03D17B68B3F5B0
:10112000A06FF0D12A4B1B6803F40033002B02D0D0
:1011300001233B6001E000233B603B68012B42D16F
:10114000234B234A126C42F080521A64214B214AED
:10115000126842F480421A601D4B1D4A92689A60E0
:101160001B4B1B4A926842F400429A60184B184A83
:10117000926842F4A0529A60154B174A5A60144B79
:10118000134A126842F080721A6000BF104B1B684D
:1011900003F00073002BF9D0104B40F205621A6087
:1011A0000B4B0B4A926822F003029A60084B084AE4
:1011B000926842F002029A6000BF054B9B6803F000
:1011C0000C03082BF9D10C37BD465DF8047B704742
:1011D000003802400070004008544007003C0240C4
:1011E000783D25640D0A0000737464696F2E633ABC
:1011F00020696E637265617365204D41585F535479
:0C12000052494E475F53495A450A0D0001
:10120C0000000000010203040102030406070809A0
:10121C0000000000000000000100000000000000C1
:10122C0000000000000000000000000000000000B2
:10123C0000000000000000000000000000000000A2
:10124C000000000000000000000000000000000092
:10125C000000000000000000000000000000000082
:10163C00000000000000000010000020000000006E
:10164C00007A030A000000000000000001020304FD
:04165C00060708096C
:0400000508000000EF
:00000001FF
